{
  "contractName": "TodoList",
  "abi": [
    {
      "anonymous": false,
      "inputs": [
        {
          "indexed": false,
          "name": "task",
          "type": "string"
        },
        {
          "indexed": false,
          "name": "complete",
          "type": "bool"
        }
      ],
      "name": "CreateTodo",
      "type": "event"
    },
    {
      "constant": false,
      "inputs": [
        {
          "name": "task",
          "type": "string"
        }
      ],
      "name": "createTodo",
      "outputs": [],
      "payable": false,
      "stateMutability": "nonpayable",
      "type": "function"
    },
    {
      "constant": false,
      "inputs": [
        {
          "name": "id",
          "type": "uint256"
        }
      ],
      "name": "completeTodo",
      "outputs": [],
      "payable": false,
      "stateMutability": "nonpayable",
      "type": "function"
    },
    {
      "constant": true,
      "inputs": [],
      "name": "getTotalNumTodos",
      "outputs": [
        {
          "name": "",
          "type": "uint256"
        }
      ],
      "payable": false,
      "stateMutability": "view",
      "type": "function"
    },
    {
      "constant": true,
      "inputs": [
        {
          "name": "todoId",
          "type": "uint256"
        }
      ],
      "name": "returnTodo",
      "outputs": [
        {
          "name": "task",
          "type": "string"
        },
        {
          "name": "completed",
          "type": "bool"
        }
      ],
      "payable": false,
      "stateMutability": "view",
      "type": "function"
    }
  ],
  "bytecode": "0x608060405234801561001057600080fd5b506104d8806100206000396000f300608060405260043610610062576000357c0100000000000000000000000000000000000000000000000000000000900463ffffffff1680631bb2cddc1461006757806320fe214414610118578063993dff8c14610145578063e34f122114610170575b600080fd5b34801561007357600080fd5b50610092600480360381019080803590602001909291905050506101d9565b604051808060200183151515158152602001828103825284818151815260200191508051906020019080838360005b838110156100dc5780820151818401526020810190506100c1565b50505050905090810190601f1680156101095780820380516001836020036101000a031916815260200191505b50935050505060405180910390f35b34801561012457600080fd5b50610143600480360381019080803590602001909291905050506102b6565b005b34801561015157600080fd5b5061015a6102f7565b6040518082815260200191505060405180910390f35b34801561017c57600080fd5b506101d7600480360381019080803590602001908201803590602001908080601f0160208091040260200160405190810160405280939291908181526020018383808284378201915050505050509192919290505050610303565b005b60606000806000848154811015156101ed57fe5b90600052602060002090600202019050806000018054600181600116156101000203166002900480601f0160208091040260200160405190810160405280929190818152602001828054600181600116156101000203166002900480156102955780601f1061026a57610100808354040283529160200191610295565b820191906000526020600020905b81548152906001019060200180831161027857829003601f168201915b505050505092508060010160009054906101000a900460ff16915050915091565b600080828154811015156102c657fe5b9060005260206000209060020201905060018160010160006101000a81548160ff0219169083151502179055505050565b60008080549050905090565b60007f49ea4cb8a84b33a394951fe601e608d7deb4ad6aa89473b6050aa68e4d94435b6000604051808060200183151515158152602001828103825260088152602001807f6e6577207461736b0000000000000000000000000000000000000000000000008152506020019250505060405180910390a1600160006040805190810160405280858152602001600015158152509080600181540180825580915050906001820390600052602060002090600202016000909192909190915060008201518160000190805190602001906103dd929190610407565b5060208201518160010160006101000a81548160ff02191690831515021790555050500390505050565b828054600181600116156101000203166002900490600052602060002090601f016020900481019282601f1061044857805160ff1916838001178555610476565b82800160010185558215610476579182015b8281111561047557825182559160200191906001019061045a565b5b5090506104839190610487565b5090565b6104a991905b808211156104a557600081600090555060010161048d565b5090565b905600a165627a7a72305820d4e82f5d26cd648b159185290c0c5c2caae8cde96bcc61346e93a4fd3605f6f50029",
  "source": "pragma solidity ^0.4.24;\n\ncontract TodoList {\n\n    /*-------------------- EVENT TYPES --------------------*/\n    event CreateTodo (\n      string task,\n      bool complete\n    );\n\n    /*-------------------- DATA TYPES --------------------*/\n\n    struct Todo {\n        string task;\n        bool complete;\n    }\n\n    /*--------------------- STORAGE ---------------------*/\n\n    // stores all our todos\n    Todo[] todos;\n\n    /*--------------------- CREATION ---------------------*/\n\n    function createTodo(string task) public {\n        // create a todo and push it into the storage array\n        emit CreateTodo(\"new task\", false);\n        uint id = todos.push(Todo(task, false)) - 1;\n    }\n\n    /*-------------------- COMPLETION --------------------*/\n\n    function completeTodo(uint id) public {\n        // access the todo in storage\n        Todo storage todo = todos[id];\n        // mark the todo as complete\n        todo.complete = true;\n    }\n\n    /*--------------------- QUERYING ---------------------*/\n\n    // on the front end, we can initially call this func to get the total number of todos\n    // then create a for loop, loop from (i = 0 => totalToDos) and call returnToDo (seen below)\n    function getTotalNumTodos() public view returns (uint){\n        return todos.length;\n    }\n\n    function returnTodo(uint todoId) public view returns (string task, bool completed) {\n        Todo storage todo = todos[todoId];\n        task = todo.task;\n        completed = todo.complete;\n    }\n}\n\n",
  "sourcePath": "/Users/andrewdrummond/Dropbox/Fellow/web3_example/contracts/TodoList.sol",
  "compiler": {
    "name": "solc",
    "version": "0.4.24+commit.e67f0147.Emscripten.clang"
  },
  "schemaVersion": "2.0.1",
  "updatedAt": "2018-12-05T22:26:24.274Z"
}